:100000000C9462000C948A000C948A000C948A0070
:100010000C948A000C948A000C948A000C948A0038
:100020000C948A000C948A000C948A000C948A0028
:100030000C948A000C948A000C948A000C948A0018
:100040000C946D030C948A000C943B030C941503E0
:100050000C948A000C948A000C948A000C948A00F8
:100060000C948A000C948A000000000023002600F3
:10007000290000000008000201000003040700003E
:1000800000000000000000000000250028002B00F8
:1000900000000000240027002A00040404040404D3
:1000A0000404020202020202030303030303010227
:1000B00004081020408001020408102001020408F6
:1000C0001020B70311241FBECFEFD8E0DEBFCDBF95
:1000D00011E0A0E0B1E0E6EEFBE002C005900D9279
:1000E000A231B107D9F722E0A2E1B1E001C01D922F
:1000F000A330B207E1F710E0C2E6D0E004C02197D8
:10010000FE010E94EB05C136D107C9F70E94EE033C
:100110000C94F1050C94000090E0FC01E255FF4FB7
:10012000249186569F4FFC018491882399F090E09A
:10013000880F991FFC01E057FF4FA591B491FC0176
:10014000EA57FF4F859194918FB7F894EC91E22B89
:10015000EC938FBF0895AF92BF92CF92DF92EF9250
:10016000FF920F931F93CF93DF936C017B018B0161
:10017000040F151FEB015E01AE18BF08C017D107B1
:1001800059F06991D601ED91FC910190F081E02D3B
:10019000C6010995892B79F7C501DF91CF911F9190
:1001A0000F91FF90EF90DF90CF90BF90AF900895A8
:1001B000FC01538D448D252F30E0842F90E0821B6D
:1001C000930B541710F0CF96089501970895FC01F2
:1001D000918D828D981761F0A28DAE0FBF2FB11D4A
:1001E0005D968C91928D9F5F9F73928F90E00895A2
:1001F0008FEF9FEF0895FC01918D828D981731F05C
:10020000828DE80FF11D858D90E008958FEF9FEFAF
:100210000895FC01918D228D892F90E0805C9F4F85
:10022000821B91098F739927089582E691E00E94BD
:10023000090121E0892B09F420E0822F089580E054
:1002400090E0892B29F00E94150181110C94000087
:100250000895FC01A48DA80FB92FB11DA35ABF4F5B
:100260002C91848D90E001968F739927848FA689B5
:10027000B7892C93A089B1898C91837080648C9309
:10028000938D848D981306C00288F389E02D8081B8
:100290008F7D80830895EF92FF920F931F93CF93EA
:1002A000DF93EC0181E0888F9B8D8C8D98131AC0B1
:1002B000E889F989808185FF15C09FB7F894EE8998
:1002C000FF896083E889F9898081837080648083F5
:1002D0009FBF81E090E0DF91CF911F910F91FF9040
:1002E000EF900895F62E0B8D10E00F5F1F4F0F73E8
:1002F0001127E02E8C8D8E110CC00FB607FCFACFA3
:10030000E889F989808185FFF5CFCE010E94290116
:10031000F1CFEB8DEC0FFD2FF11DE35AFF4FF08273
:100320009FB7F8940B8FEA89FB8980818062CFCFD9
:10033000CF93DF93EC01888D8823B9F0AA89BB891C
:10034000E889F9898C9185FD03C0808186FD0DC007
:100350000FB607FCF7CF8C9185FFF2CF808185FF28
:10036000EDCFCE010E942901E9CFDF91CF91089511
:10037000833081F028F4813099F08230A9F008951B
:100380008730A9F08830C9F08430B1F480918000C2
:100390008F7D03C0809180008F77809380000895C7
:1003A00084B58F7784BD089584B58F7DFBCF809110
:1003B000B0008F778093B00008958091B0008F7D5A
:1003C000F9CFCF93DF93282F30E0F901EE58FF4F9C
:1003D0008491F901E255FF4FD491F901E656FF4FA0
:1003E000C491CC23A1F081110E94B801EC2FF0E060
:1003F000EE0FFF1FE859FF4FA591B491EC91ED234B
:1004000081E090E009F480E0DF91CF91089580E0F1
:1004100090E0FACF1F93CF93DF93282F30E0F901BC
:10042000EE58FF4F8491F901E255FF4FD491F90145
:10043000E656FF4FC491CC23A9F0162F81110E94DC
:10044000B801EC2FF0E0EE0FFF1FEA57FF4FA59128
:10045000B4918FB7F894EC91111108C0D095DE23B8
:10046000DC938FBFDF91CF911F910895DE2BF8CFE2
:100470002FB7F894609117017091180180911901BC
:1004800090911A012FBF0895CF93DF93EB01660F70
:10049000672F661F770B67707727606828E0829F59
:1004A000C0011124682B82E691E00E944B01BE013D
:1004B0006F77772782E691E0DF91CF910C944B0123
:1004C000CF92DF92EF92FF920F931F93CF93DF9320
:1004D000CDB7DEB766970FB6F894DEBF0FBECDBFBF
:1004E000CE0101967C01DC0180E0AE01435F5F4FED
:1004F000BE01695E7F4FFA01182F106410937C00D3
:1005000090917A00906490937A0090917A0096FD91
:10051000FCCF9091780020917900322F292F2193E0
:100520003193E617F70751F721E030E0F901EE0FBC
:10053000FF1FE40FF51F00811181D290C2900C15AE
:100540001D0538F4D382C28211830083E417F507B6
:1005500091F72F5F3F4F2530310541F729893A89BF
:100560002D933D938F5F863031F610E0F701619156
:1005700071917F01812F0E9444021F5F1630B1F7F5
:1005800082E00E94E101009711F08FEF93E0BC013F
:1005900086E00E94440283E00E94E101009711F08E
:1005A0008FEF93E0BC0187E066960FB6F894DEBF4C
:1005B0000FBECDBFDF91CF911F910F91FF90EF90B4
:1005C000DF90CF900C944402CF92DF92EF92FF9293
:1005D0000F931F93CF930BE111E0C0E0CC24CA949A
:1005E000D12CF801E080F180E114F10449F08C2F66
:1005F0000E948C00EA94EF2881F4F801D382C28231
:10060000CF5F0C5F1F4FCE3061F7CF911F910F91DD
:10061000FF90EF90DF90CF900895F801138212823F
:1006200060E08C2F0E940A02EBCF1F920F920FB650
:100630000F9211242F933F934F935F936F937F9368
:100640008F939F93AF93BF93EF93FF9382E691E0D5
:100650000E942901FF91EF91BF91AF919F918F91DE
:100660007F916F915F914F913F912F910F900FBEAE
:100670000F901F9018951F920F920FB60F92112492
:100680002F938F939F93EF93FF93E0917201F091DB
:1006900073018081E0917801F091790182FD1BC0A6
:1006A000908180917B018F5F8F7320917C018217F5
:1006B00041F0E0917B01F0E0EE59FE4F958F809381
:1006C0007B01FF91EF919F918F912F910F900FBE22
:1006D0000F901F9018958081F4CF1F920F920FB644
:1006E0000F9211242F933F938F939F93AF93BF93B8
:1006F0008091170190911801A0911901B0911A01F0
:100700003091160123E0230F2D3758F50196A11DD6
:10071000B11D209316018093170190931801A093A7
:100720001901B0931A018091120190911301A091C7
:100730001401B09115010196A11DB11D8093120104
:1007400090931301A0931401B0931501BF91AF9141
:100750009F918F913F912F910F900FBE0F901F90FF
:10076000189526E8230F0296A11DB11DD2CFE2E60F
:10077000F1E01382128288EE93E0A0E0B0E084837F
:100780009583A683B78384E091E09183808385EC91
:1007900090E09587848784EC90E09787868780EC4B
:1007A00090E0918B808B81EC90E0938B828B82EC3C
:1007B00090E0958B848B86EC90E0978B868B118EE6
:1007C000128E138E148E0E9438026093FF01709374
:1007D000000280930102909302020895789484B5F8
:1007E000826084BD84B5816084BD85B5826085BD2D
:1007F00085B5816085BD80916E00816080936E00BB
:1008000010928100809181008260809381008091AC
:10081000810081608093810080918000816080935D
:1008200080008091B10084608093B1008091B0001D
:1008300081608093B00080917A00846080937A0018
:1008400080917A00826080937A0080917A00816042
:1008500080937A0080917A00806880937A00109269
:10086000C100E0917201F091730182E08083E09118
:100870006E01F0916F011082E0917001F0917101B1
:1008800083E3808310927A01E0917601F091770101
:1008900086E08083E0917401F09175018081806130
:1008A0008083E0917401F09175018081886080837C
:1008B000E0917401F0917501808180688083E091FE
:1008C0007401F091750180818F7D808382E691E0D3
:1008D0000E94980110921C0110921B01109220019D
:1008E00010921F01109224011092230110922801EE
:1008F0001092270121E030E030932C0120932B014E
:1009000082E090E09093300180932F019093340126
:1009100080933301309338012093370130933C01A9
:1009200020933B019093400180933F0183E090E04E
:100930009093440180934301909348018093470131
:1009400090934C0180934B019093500180934F0101
:100950000E94E4026AE0C62E70E0E72E70E0F72EF7
:10096000DD24D394E2E0BE2E80915A0181110CC0A7
:100970000E9438026093560170935701809358018A
:1009800090935901D0925A010E9438020091560169
:10099000109157012091580130915901601B710B42
:1009A000820B930B643171058105910568F1CBE1F0
:1009B000D1E000E0888199810197B1F41A811F3F4D
:1009C00099F061E0802F0E940A021C9DC001112451
:1009D000880F991F880F991F855A964F0197F1F735
:1009E00060E0802F0E940A020F5F24960A3011F700
:1009F0000E9460020E943802609356017093570172
:100A0000809358019093590182E691E00E94090178
:100A1000892B09F4BEC080915501811154C082E632
:100A200091E00E94E7008093540187FF87C0D09235
:100A3000550180915501823009F080C00E94380232
:100A40006093FF0170930002809301029093020271
:100A5000C0915401D0E0CE0123E0959587952A9569
:100A6000E1F7282F2F70A22ED695DC2FCC27D79513
:100A7000C795C078D370809153018F77C82B022F10
:100A800010E0F801EE0FFF1FEE0FFF1FE55EFE4FB7
:100A900082819381C817D90709F44EC0D383C283DA
:100AA000808191816C2F8330910549F0029709F084
:100AB00043C0822F0E948C002097B1F460E08A2D01
:100AC0000E940A0239C0813009F0B3CF82E691E07A
:100AD0000E94E7008093530187FD03C0B092550147
:100AE000A8CF10925501A5CFCF3FD10511F461E0F9
:100AF000E6CFF801EE58FF4FE491E33081F140F486
:100B0000E130B1F0E23031F1C038D10584F7D6CF11
:100B1000E73079F1E830A9F1E430B1F78091800055
:100B2000806280938000D0938B00C0938A0004C0C1
:100B300084B5806884BDC7BD10925501E114F104ED
:100B400009F412CF0E941501882309F40DCF0E94E9
:100B500000000ACF84B5806284BDC8BDEDCF80910E
:100B60008000806880938000D0938900C0938800C3
:100B7000E3CF8091B00080688093B000C093B30051
:100B8000DBCF8091B00080628093B000C093B4004E
:100B9000D3CF0E9438020091FF01109100022091F2
:100BA000010230910202601B710B820B930B693EB4
:100BB00073408105910510F20E94E4020E946002D8
:100BC0000E9438026093FF0170930002809301023B
:100BD00090930202B3CFEE0FFF1F0590F491E02D2A
:060BE0000994F894FFCF18
:100BE600000000004B01AB00D80098010901E700A6
:020BF600FB0002
:00000001FF
